:020000040800F2
:10000000D0770020950200087DA2000869840008CE
:1000100009980008F90B0008CD5401080000000001
:10002000000000000000000000000000710901084D
:10003000B126000800000000D1A70008CD09010882
:10004000AF020008AF020008AF020008AF020008CC
:10005000AF020008AF020008B5260008C12600085C
:10006000AF020008CD260008D9260008AF0200081C
:1000700009140008AF020008AF020008AF02000830
:10008000AF020008AF020008AF020008AF0200088C
:10009000FD0B0008AF020008AF020008E5260008CB
:1000A000AF020008AF020008AF020008AF0200086C
:1000B000AF020008AF020008D90A0108AF02000829
:1000C000AF020008AF020008AF020008AF0200084C
:1000D000AF02000889180108AF020008991801084A
:1000E000AF020008AF020008AF020008E90A0108E9
:1000F000AF020008AF020008AF020008AF0200081C
:10010000AF020008AF020008AF020008AF0200080B
:10011000AF020008AF020008AF020008AF020008FB
:10012000AF0200081914000829140008D924000897
:10013000AF020008AF020008AF020008AF020008DB
:10014000AF0200080D0C0008AF020008EDA2000885
:10015000E9240008F924000809250008A918010865
:10016000AF020008AF020008AF020008AF020008AB
:10017000AF020008AF020008AF0200080000000054
:10018000AF020008AF02000800F002F800F072F8B9
:1001900014A696E8000CB244B344DA4501D100F04D
:1001A00069F8BAE80F000FA696E83000A5EB040541
:1001B00004EB0607AAEB0704A7F101074FEA1515A0
:1001C0004FEA3414A4F10104AC4201D300F052F818
:1001D00013F0010F18BFFB1A43F0010300F001F800
:1001E000DBE71847BCB00100DCB001000A444FF067
:1001F000000C10F8013B13F0070408BF10F8014B86
:100200001D1108BF10F8015B641E05D010F8016BCA
:10021000641E01F8016BF9D113F0080F1EBF10F82E
:10022000014BAD1C0C1B09D16D1E58BF01F801CB51
:10023000FAD505E014F8016B01F8016B6D1EF9D5D4
:100240009142D6D37047000070470000002300247D
:1002500000250026103A28BF78C1FBD8520728BFD6
:1002600030C148BF0B6070471FB51AF048FD1FBD75
:1002700010B510BD00F0A4F91146FFF7F5FF16F018
:100280003BFC00F0C2F903B4FFF7F2FF03BC00F03F
:10029000C5F900000948804709480047FEE7FEE726
:1002A000FEE7FEE7FEE7FEE7FEE7FEE7FEE7FEE726
:1002B00004480549054A064B70470000C50A010875
:1002C00089010008D0710020D0770020D073002071
:1002D000D073002053EA020C00F069802DE9F04B46
:1002E0004FF00006002B1FBFB3FA83F503FA05F4A5
:1002F00024FA05F65E4012BF1643B2FA82F502FAFE
:1003000005F4C5F120051EBF22FA05FC44EA0C04E1
:10031000203556EA044C4FEA144418BF641C4FF0D1
:1003200000084FF00009904271EB030C39D300290B
:1003300019BFB1FA81F701FA07F6B0FA80F700FAAF
:1003400007F6C7F120071EBF20FA07FC46EA0C0695
:100350002037B6FBF4FCA7EB0507103F07F01F0B97
:10036000CBF120062CFA06F60CFA0BFB44BFB34681
:100370000026202FA4BF5E464FF0000B5BEA060C60
:1003800008BF4FF0010B19EB0B0948EB0608ABFB5C
:10039000027C06FB02CC0BFB03CCC01B71EB0C01F7
:1003A000C1E70B46024641464846BDE8F08B13B50F
:1003B000084318BF4FF0FF300146AFF30080BDE89F
:1003C0001C40704710B5431C02E010F8011B71B1CE
:1003D0008107FAD14FF0013202C88C1A8C4314EA1B
:1003E000C211F9D0C01A0A0603D0C01E10BDC01A2F
:1003F00010BD0A0401D0801E10BD0902FCD0401EB1
:1004000010BD032A40F2308010F0030C00F015807C
:1004100011F8013BBCF1020F624498BF11F801CB07
:1004200000F8013B38BF11F8013BA2F1040298BF6C
:1004300000F801CB38BF00F8013B11F0030300F0D6
:100440008480083AC0F0088051F8043B083A51F81B
:1004500004CBA0E80810F5E7121D5CBF51F8043B7F
:1004600040F8043BAFF30080D20724BF11F8013BF2
:1004700011F801CB48BF11F8012B24BF00F8013B54
:1004800000F801CB48BF00F8012B704702F0FF03D2
:1004900043EA032242EA024200F024B84FF000028D
:1004A0000429C0F0128010F0030C00F01B80CCF186
:1004B000040CBCF1020F18BF00F8012BA8BF20F8F4
:1004C000022BA1EB0C0100F00DB85FEAC17C24BF48
:1004D00000F8012B00F8012B48BF00F8012B7047F2
:1004E0004FF0000200B5134694469646203922BFCD
:1004F000A0E80C50A0E80C50B1F12001BFF4F7AF18
:10050000090728BFA0E80C5048BF0CC05DF804EBF9
:10051000890028BF40F8042B08BF704748BF20F867
:10052000022B11F0804F18BF00F8012B7047704765
:100530007047704710B500F03BF8006810BD10B56B
:10054000044600F035F8046010BD10B5203AC0F044
:100550000B80B1E81850A0E81850B1E81850A0E896
:100560001850203ABFF4F5AF5FEA027C24BFB1E82F
:100570001850A0E8185044BF18C918C0BDE8104072
:100580005FEA827C24BF51F8043B40F8043B08BF7B
:100590007047D20728BF31F8023B48BF11F8012B42
:1005A00028BF20F8023B48BF00F8012B704700002D
:1005B0000048704760030020004870476003002037
:1005C0007546FFF7F9FFAE4605006946534620F031
:1005D0000700854618B020B5FFF76AFEBDE8204049
:1005E0004FF000064FF000074FF000084FF0000BEF
:1005F000AC46ACE8C009ACE8C009ACE8C009ACE85E
:10060000C00921F007018D46704710B50446AFF3CD
:1006100000802046BDE81040FFF735BE0149182094
:10062000ABBEFEE7260002007047000083B00290D8
:100630000191009202994FF07E50086002990020CB
:100640004860029988600299C86003B07047000052
:1006500080B586B005908DED040A03910292019356
:100660000598039991ED000AD1ED010A91ED021A66
:100670000299D1ED001A91ED012AD1ED022A08F07C
:100680009BFE06B080BD000081B08DED000AFFE743
:100690009DED000A9FED141AB4EE410AF1EE10FA36
:1006A00009DDFFE79DED000A9FED121A30EE010A09
:1006B0008DED000AECE7FFE79DED000A9FED0B1AB8
:1006C000B4EE410AF1EE10FA09DAFFE79DED000AF7
:1006D0009FED071A30EE010A8DED000AECE79DED63
:1006E000000A01B0704700BFDC0F4940DC0F49C071
:1006F000DC0FC940DC0FC9C080B50020C4F2020085
:100700001021012203F054FF80BD000080B50020BD
:10071000C4F202001021002203F04AFF80BD000055
:100720007047000080B540F20040C4F20200012290
:10073000114603F03DFF80BD80B540F20040C4F299
:1007400002000121002203F033FF80BD85B0049038
:100750000391029204990878497840EA0120ADF8A3
:100760000600BDF9060000EE100AB8EEC00A40F21D
:100770000000C2F2000090ED001A20EE010A039979
:1007800081ED000A049A9178D27841EA0221ADF80D
:100790000610BDF9061000EE101AB8EEC00A90ED72
:1007A000001A20EE010A039981ED010A049A1179D9
:1007B000527941EA0221ADF80610BDF9061000EEAB
:1007C000101AB8EEC00A90ED001A20EE010A039844
:1007D00080ED020A04988179C279007A000440EA27
:1007E0000220084400909DED000AB8EE400A9FEDFB
:1007F000041A20EE010A029880ED000A05B0704745
:1008000000401C427047000080B582B0ADF8060081
:10081000BDF8060016F0ACF902B080BD80B582B01C
:10082000ADF80600012016F0A3F902B080BD00006B
:1008300083B00290019102990878497840EA01203A
:10084000ADF80200BDF9020000EE100AB8EEC00AD1
:1008500040F20400C2F2000090ED001A20EE010AFE
:10086000019981ED000A029A9178D27841EA022139
:10087000ADF80210BDF9021000EE101AB8EEC00A71
:1008800090ED001A20EE010A019981ED010A029A09
:100890001179527941EA0221ADF80210BDF9021036
:1008A00000EE101AB8EEC00A90ED001A20EE010A10
:1008B000019880ED020A03B07047000080B582B055
:1008C00000208DF80700FFF72BFFFFF79BFF15F0C7
:1008D0004BFA38B1FFE79DF8070040F080008DF833
:1008E000070008E015F076F901469DF80700084377
:1008F0008DF80700FFE715F0BDFC38B1FFE79DF864
:10090000070040F040008DF8070008E015F00CFCEF
:1009100001469DF8070008438DF80700FFE79DF8A2
:10092000070002B080BD000080B588B00790069136
:1009300005920020009004900390FFF7E7FE9220BC
:1009400000F006F9122003A90191062200F0CCF86C
:10095000FFF7D2FE9DF80C009DF80D1040EA012033
:10096000ADF80A00BDF90A0000EE100AB8EEC00AA0
:1009700040F20000C2F2000090ED001A20EE010AE1
:10098000069981ED000A9DF80E109DF80F2041EAAE
:100990000221ADF80A10BDF90A1000EE101AB8EEE7
:1009A000C00A90ED001A20EE010A069981ED010AB5
:1009B0009DF810109DF8112041EA0221ADF80A10AF
:1009C000BDF90A1000EE101AB8EEC00A90ED001A38
:1009D00020EE010A069880ED020AFFF7ADFE0098AE
:1009E0000199082200F080F8FFF79CFE9DF80C00AA
:1009F0000F2844D1FFE79DF80E009DF80F1040EA44
:100A00000120ADF80A00BDF90A0000EE100AB8EEA8
:100A1000C00A40F20400C2F2000090ED001A20EE7D
:100A2000010A079981ED000A9DF810109DF8112028
:100A300041EA0221ADF80A10BDF90A1000EE101AC1
:100A4000B8EEC00A90ED001A20EE010A079981ED78
:100A5000010A9DF812109DF8132041EA0221ADF819
:100A60000A10BDF90A1000EE101AB8EEC00A90ED97
:100A7000001A20EE010A079880ED020AFFE7FFF74F
:100A800045FEA22000F064F8222003A9022200F013
:100A90002BF8FFF731FE9DF80C009DF80D10C000FB
:100AA00040EA5110ADF80A00BDF90A00B0F5806FB8
:100AB00007DBFFE7BDF80A00A0F50060ADF80A000B
:100AC000FFE7BDF90A0000EE100AB8EEC00AB4EE66
:100AD000001A20EE010AB3EE071A30EE010A05985B
:100AE00080ED000A08B080BD80B584B08DF80F009D
:100AF00002918DF807209DF80F0040F0800000F073
:100B000027F8FFE79DF8070070B1FFE7552000F0D8
:100B10001FF8029908700298013002909DF80700B2
:100B200001388DF80700EDE704B080BD80B582B0D4
:100B30008DF8070000919DF8070040F0800000F05C
:100B400007F8552000F004F80099087002B080BD45
:100B500080B582B08DF8070069464FF47A7008605E
:100B600042F62810C2F200000DF107010DF1060255
:100B7000012306F00FF89DF8060002B080BD0000CA
:100B800083B002900191029908784978C00040EA48
:100B90005110ADF80200BDF90200B0F5806F07DB1F
:100BA000FFE7BDF80200A0F50060ADF80200FFE726
:100BB000BDF9020000EE100AB8EEC00AB4EE001A49
:100BC00020EE010AB3EE071A30EE010A019880ED1B
:100BD000000A03B07047000080B582B08DF80700AE
:100BE0008DF806109DF80700FFF7B2FF9DF806008C
:100BF000FFF7AEFF02B080BDFFE7FEE780B542F22F
:100C00000010C2F2000002F0FDF980BD80B542F292
:100C10002810C2F2000002F0F5F980BD82B08DF814
:100C200003009DF80300012806D1FFE742F20010FF
:100C3000C2F2000001900DE09DF80300022806D1E9
:100C4000FFE742F22810C2F20000019002E000200B
:100C50000190FFE7019802B07047000084B08DF862
:100C60000F000291ADF806209DF80F00014600919B
:100C700023281DD80099DFE801F012131415161B64
:100C80001B1B1B1B1B1B1B1B1B1B1B1B1B1B1B1BB4
:100C90001B1B1B1B1B1B1B1B1B1B1718191A08E0FC
:100CA00007E006E005E004E003E002E001E000E028
:100CB000FFE7002004B070470020704780B582B085
:100CC00041F62460C2F20000009041F28801C2F2B5
:100CD00000010022019211F089F9009840F6880184
:100CE000C2F2000111F064F9019802B080BD000069
:100CF00080B584B003900291039941F62460C2F25A
:100D00000000019011F054F9019811F0F7F800205B
:100D100004B080BD83B0029001918DF803200020C3
:100D20008DF802009DF9020003B0704780B596B0BF
:100D3000012114910020129013910C900D900E90AF
:100D40000F9011901090FFE742F20010C2F20000E5
:100D50000CA901F015FFB0B1FFE74AF64260C0F6FA
:100D60000100694608604BF2F201C0F601014AF643
:100D70004762C0F601024AF63963C0F6010300205B
:100D80000AF062F8E0E701210A9100200890099139
:100D9000069102900390049005900E2007900B900E
:100DA000FFE742F22810C2F2000002A901F0E8FEBB
:100DB000B0B1FFE74AF64260C0F60100694608603C
:100DC0004BF21B11C0F601014AF64762C0F6010260
:100DD0004AF63963C0F6010300200AF035F8E0E76F
:100DE00016B080BD80B586B0FFF7A0FF4AF642601E
:100DF000C0F601000290694608604BF20E21C0F671
:100E000001014AF64F62C0F6010203924AF63C63C2
:100E1000C0F601030493002005900AF015F800F0D5
:100E200045FA02990598039A049BEC46CCF8001009
:100E30004BF2C611C0F601010AF006F80299039AB6
:100E4000049B059840F23D1CC2F2000C8CF8000097
:100E5000EC46CCF800104BF2EE11C0F6010109F09F
:100E6000F3FF06B080BD000080B58CB00A900A98F0
:100E700000F072F818B9FFE700200B9069E040F22B
:100E80003D10C2F200000078C00718B1FFE7FFF77D
:100E9000A9FFFFE73F2016F0ADFE09900998E0B9E1
:100EA000FFE70A9800684AF64262C0F60102694606
:100EB0004A6008604BF23A21C0F601014AF64762E7
:100EC000C0F601024AF63963C0F601030020029021
:100ED00009F0BAFF02980B903BE009983F21FFF719
:100EE000DDFA0A980068099908600A980079FFF706
:100EF00095FE099948600A98B0F805000999088498
:100F0000099808300A99B1F805100391002104915D
:100F100005910691082207928DF8201003A9182246
:100F2000FFF76FFA0A98B0F80700099948850A9800
:100F3000D0F809000999C1F837000A98D0F80D00D7
:100F40000999C1F83B00099800F03EF909980B9007
:100F5000FFE70B980CB080BD80B58CB00A900A9862
:100F6000D0B9FFE74AF64260C0F601006946086062
:100F70004AF69A61C0F601014AF64762C0F60102DC
:100F80004AF63963C0F601030020089009F05CFFBF
:100F900008988DF82F0013E10A980068A0B1FFE7C8
:100FA0000A98B0F8070078B1FFE70A98B0F8050092
:100FB00050B1FFE70A98007901281FD0FFE70A988F
:100FC000007902281AD0FFE74AF64260C0F6010015
:100FD000694608604BF25E01C0F601014AF64762BD
:100FE000C0F601024AF63963C0F6010300200790FB
:100FF00009F02AFF07988DF82F00E1E00A980079A0
:1010000001286AD1FFE741F61060C2F200000078C3
:1010100008281DD1FFE70A9800684AF64262C0F628
:10102000010269464A6008604AF6A471C0F60101EF
:101030004AF64762C0F601024AF63963C0F6010378
:101040000020069009F000FF06988DF82F00B7E009
:1010500000208DF82700FFE79DF8270041F610617A
:10106000C2F200010978884236DAFFE79DF82710BE
:1010700041F6D050C2F2000050F82100408D0A998C
:10108000B1F80710884220D1FFE70A990868B1F843
:1010900007204AF64263C0F6010369468B604A6046
:1010A00008604BF24411C0F601014AF64762C0F6EF
:1010B00001024AF63963C0F601030020059009F0E9
:1010C000C3FE05988DF82F007AE0FFE79DF8270012
:1010D00001308DF82700BFE7FFE70A980079022862
:1010E0006AD1FFE741F61160C2F2000000780828DB
:1010F0001DD1FFE70A9800684AF64262C0F6010275
:1011000069464A6008604AF6E471C0F601014AF691
:101110004762C0F601024AF63963C0F601030020B7
:10112000049009F091FE04988DF82F0048E000200B
:101130008DF82600FFE79DF8260041F61161C2F206
:1011400000010978884236DAFFE79DF8261041F65B
:10115000F050C2F2000050F82100408D0A99B1F819
:101160000710884220D1FFE70A990868B1F80720E4
:101170004AF64263C0F6010369468B604A60086024
:101180004BF28511C0F601014AF64762C0F6010232
:101190004AF63963C0F601030020039009F054FEBB
:1011A00003988DF82F000BE0FFE79DF82600013033
:1011B0008DF82600BFE7FFE701208DF82F00FFE73D
:1011C0009DF82F000CB080BD80B586B005900598C5
:1011D000406842F20011C2F2000188422DD1FFE7BF
:1011E000059841F61061C2F200010B7841F6D05229
:1011F000C2F2000242F82300087801300870059915
:1012000008680A8C4B8D4AF6426CC0F6010C6946A0
:10121000C1F80CC08B604A6008604AF6CA61C0F62B
:1012200001014AF64F62C0F601024AF63C63C0F67D
:101230000103002009F008FEFFE70598406842F22C
:101240002811C2F2000188422DD1FFE7059841F62E
:101250001161C2F200010B7841F6F052C2F20002B5
:1012600042F82300087801300870059908680A8C54
:101270004B8D4AF6426CC0F6010C6946C1F80CC0B1
:101280008B604A6008604AF61071C0F601014AF6A8
:101290004F62C0F601024AF63C63C0F6010300202B
:1012A00009F0D2FDFFE706B080BD000080B582B036
:1012B000FFE742F20010C2F2000002F023FBB0B1DF
:1012C000FFE74AF64260C0F60100694608604BF24B
:1012D0002401C0F601014AF64762C0F601024AF64F
:1012E0003963C0F60103002009F0AEFDE1E7FFE736
:1012F00042F22810C2F2000002F004FBB0B1FFE796
:101300004AF64260C0F60100694608604BF24101AE
:10131000C0F601014AF64762C0F601024AF6396397
:10132000C0F60103002009F08FFDE1E7FFE742F27C
:101330000010C2F20000022101F04CFBB0B1FFE747
:101340004AF64260C0F60100694608604BF294011B
:10135000C0F601014AF64762C0F601024AF6396357
:10136000C0F60103002009F06FFDE0E7FFE742F25D
:101370002810C2F20000102101F02CFBB0B1FFE7F1
:101380004AF64260C0F60100694608604BF2C301AC
:10139000C0F601014AF64762C0F601024AF6396317
:1013A000C0F60103002009F04FFDE0E702B080BD68
:1013B00080B584B00290FFE70298406801F0EAFD32
:1013C00060B9FFE79DF8070001308DF807009DF830
:1013D0000700652801DBFFE700E0EDE7029A5068AF
:1013E00002F108012232012301F01EFB20B9FFE7C0
:1013F00001208DF80F0003E000208DF80F00FFE7BB
:101400009DF80F0004B080BD80B542F2D020C2F23A
:10141000000002F071FB80BD80B542F23030C2F2B4
:10142000000002F069FB80BD80B5E2B042F62810F2
:10143000C2F20000C06C006846F25941C4F20201D9
:101440008842C0F0F380FFE746F20440C4F2020095
:101450000068619042F62810C2F20000C06C00687B
:1014600046F21001C4F20201884203D1FFE72020B6
:101470006090D6E042F62810C2F20000C06C00680E
:1014800046F21041C4F20201884203D1FFE7202056
:101490005F90C3E042F62810C2F20000C06C006802
:1014A00046F27001C4F20201884203D1FFE7202016
:1014B0005E90B0E042F62810C2F20000C06C0068F6
:1014C00046F27041C4F20201884203D1FFE72020B6
:1014D0005D909DE042F62810C2F20000C06C0068EA
:1014E00046F22801C4F20201884204D1FFE74FF41A
:1014F00000605C9089E042F62810C2F20000C06CE7
:10150000006846F22841C4F20201884204D1FFE794
:101510004FF400605B9075E042F62810C2F20000C4
:10152000C06C006846F28801C4F20201884204D10E
:10153000FFE74FF400605A9061E042F62810C2F2D3
:101540000000C06C006846F28841C4F20201884283
:1015500004D1FFE74FF4006059904DE042F62810A7
:10156000C2F20000C06C006846F24001C4F2020101
:10157000884204D1FFE74FF40010589039E042F65A
:101580002810C2F20000C06C006846F24041C4F26C
:101590000201884204D1FFE74FF40010579025E084
:1015A00042F62810C2F20000C06C006846F2A001AA
:1015B000C4F20201884204D1FFE74FF400105690B4
:1015C00011E042F62810C2F20000C06C016846F239
:1015D000A042C4F202024FF00060914208BF4FF4F3
:1015E00000105690FFE756985790FFE7579858908D
:1015F000FFE758985990FFE759985A90FFE75A9893
:101600005B90FFE75B985C90FFE75C985D90FFE77D
:101610005D985E90FFE75E985F90FFE75F9860904F
:10162000FFE76198609908405590F7E242F628106C
:10163000C2F20000C06C006846F2B901C4F20201B7
:101640008842C0F0F380FFE746F20040C4F2020097
:101650000068549042F62810C2F20000C06C006886
:1016600046F21001C4F20201884203D1FFE72020B4
:101670005390D6E042F62810C2F20000C06C006819
:1016800046F21041C4F20201884203D1FFE7202054
:101690005290C3E042F62810C2F20000C06C00680D
:1016A00046F27001C4F20201884203D1FFE7202014
:1016B0005190B0E042F62810C2F20000C06C006801
:1016C00046F27041C4F20201884203D1FFE72020B4
:1016D00050909DE042F62810C2F20000C06C0068F5
:1016E00046F22801C4F20201884204D1FFE74FF418
:1016F00000604F9089E042F62810C2F20000C06CF2
:10170000006846F22841C4F20201884204D1FFE792
:101710004FF400604E9075E042F62810C2F20000CF
:10172000C06C006846F28801C4F20201884204D10C
:10173000FFE74FF400604D9061E042F62810C2F2DE
:101740000000C06C006846F28841C4F20201884281
:1017500004D1FFE74FF400604C904DE042F62810B2
:10176000C2F20000C06C006846F24001C4F20201FF
:10177000884204D1FFE74FF400104B9039E042F665
:101780002810C2F20000C06C006846F24041C4F26A
:101790000201884204D1FFE74FF400104A9025E08F
:1017A00042F62810C2F20000C06C006846F2A001A8
:1017B000C4F20201884204D1FFE74FF400104990BF
:1017C00011E042F62810C2F20000C06C016846F237
:1017D000A042C4F202024FF00060914208BF4FF4F1
:1017E00000104990FFE749984A90FFE74A984B90CC
:1017F000FFE74B984C90FFE74C984D90FFE74D98D2
:101800004E90FFE74E984F90FFE74F985090FFE7BC
:1018100050985190FFE751985290FFE7529853909B
:10182000FFE75498539908404890F4E142F6281095
:10183000C2F20000C06C006846F25901C4F2020115
:101840008842C0F0F380FFE746F20400C4F20200D1
:101850000068479042F62810C2F20000C06C006891
:1018600046F21001C4F20201884203D1FFE72020B2
:101870004690D6E042F62810C2F20000C06C006824
:1018800046F21041C4F20201884203D1FFE7202052
:101890004590C3E042F62810C2F20000C06C006818
:1018A00046F27001C4F20201884203D1FFE7202012
:1018B0004490B0E042F62810C2F20000C06C00680C
:1018C00046F27041C4F20201884203D1FFE72020B2
:1018D00043909DE042F62810C2F20000C06C006800
:1018E00046F22801C4F20201884204D1FFE74FF416
:1018F0000060429089E042F62810C2F20000C06CFD
:10190000006846F22841C4F20201884204D1FFE790
:101910004FF40060419075E042F62810C2F20000DA
:10192000C06C006846F28801C4F20201884204D10A
:10193000FFE74FF40060409061E042F62810C2F2E9
:101940000000C06C006846F28841C4F2020188427F
:1019500004D1FFE74FF400603F904DE042F62810BD
:10196000C2F20000C06C006846F24001C4F20201FD
:10197000884204D1FFE74FF400103E9039E042F670
:101980002810C2F20000C06C006846F24041C4F268
:101990000201884204D1FFE74FF400103D9025E09A
:1019A00042F62810C2F20000C06C006846F2A001A6
:1019B000C4F20201884204D1FFE74FF400103C90CA
:1019C00011E042F62810C2F20000C06C016846F235
:1019D000A042C4F202024FF00060914208BF4FF4EF
:1019E00000103C90FFE73C983D90FFE73D983E900B
:1019F000FFE73E983F90FFE73F984090FFE7409811
:101A00004190FFE741984290FFE742984390FFE7FB
:101A100043984490FFE744984590FFE745984690E7
:101A2000FFE74798469908403B90F1E046F20000F6
:101A3000C4F2020000683A9042F62810C2F2000098
:101A4000C06C006846F21001C4F20201884203D162
:101A5000FFE720203990D6E042F62810C2F20000BD
:101A6000C06C006846F21041C4F20201884203D102
:101A7000FFE720203890C3E042F62810C2F20000B1
:101A8000C06C006846F27001C4F20201884203D1C2
:101A9000FFE720203790B0E042F62810C2F20000A5
:101AA000C06C006846F27041C4F20201884203D162
:101AB000FFE7202036909DE042F62810C2F2000099
:101AC000C06C006846F22801C4F20201884204D1C9
:101AD000FFE74FF40060359089E042F62810C2F22B
:101AE0000000C06C006846F22841C4F2020188423E
:101AF00004D1FFE74FF40060349075E042F62810FF
:101B0000C2F20000C06C006846F28801C4F2020113
:101B1000884204D1FFE74FF40060339061E042F661
:101B20002810C2F20000C06C006846F28841C4F27E
:101B30000201884204D1FFE74FF4006032904DE08B
:101B400042F62810C2F20000C06C006846F2400164
:101B5000C4F20201884204D1FFE74FF40010319033
:101B600039E042F62810C2F20000C06C006846F26C
:101B70004041C4F20201884204D1FFE74FF4001053
:101B8000309025E042F62810C2F20000C06C0068D8
:101B900046F2A001C4F20201884204D1FFE74FF4EB
:101BA00000102F9011E042F62810C2F20000C06C25
:101BB000016846F2A042C4F202024FF00060914276
:101BC00008BF4FF400102F90FFE72F983090FFE7E9
:101BD00030983190FFE731983290FFE73298339098
:101BE000FFE733983490FFE734983590FFE7359856
:101BF0003690FFE736983790FFE737983890FFE741
:101C000038983990FFE73A98399908403B90FFE7B8
:101C10003B984890FFE748985590FFE75598002873
:101C200000F05884FFE742F62810C2F20000C06CB2
:101C3000006846F25941C4F202018842C0F0EF80C8
:101C4000FFE742F62810C2F20000C06C006846F2BE
:101C50001001C4F20201884203D1FFE720202E9038
:101C6000D6E042F62810C2F20000C06C006846F2CE
:101C70001041C4F20201884203D1FFE720202D90D9
:101C8000C3E042F62810C2F20000C06C006846F2C1
:101C90007001C4F20201884203D1FFE720202C909A
:101CA000B0E042F62810C2F20000C06C006846F2B4
:101CB0007041C4F20201884203D1FFE720202B903B
:101CC0009DE042F62810C2F20000C06C006846F2A7
:101CD0002801C4F20201884204D1FFE74FF40060FA
:101CE0002A9089E042F62810C2F20000C06C006819
:101CF00046F22841C4F20201884204D1FFE74FF4C2
:101D00000060299075E042F62810C2F20000C06C15
:101D1000006846F28801C4F20201884204D1FFE75C
:101D20004FF40060289061E042F62810C2F20000F3
:101D3000C06C006846F28841C4F20201884204D1B6
:101D4000FFE74FF4006027904DE042F62810C2F202
:101D50000000C06C006846F24001C4F202018842F3
:101D600004D1FFE74FF40010269039E042F6281026
:101D7000C2F20000C06C006846F24041C4F20201A9
:101D8000884204D1FFE74FF40010259025E042F689
:101D90002810C2F20000C06C006846F2A001C4F234
:101DA0000201884204D1FFE74FF40010249011E0B3
:101DB00042F62810C2F20000C06C016846F2A04250
:101DC000C4F202024FF00060914208BF4FF40010CD
:101DD0002490FFE724982590FFE725982690FFE7B9
:101DE00026982790FFE727982890FFE728982990C2
:101DF000FFE729982A90FFE72A982B90FFE72B9876
:101E00002C90FFE72C982D90FFE72D982E90FFE760
:101E10002E9846F20C41C4F202010860EDE242F64F
:101E20002810C2F20000C06C006846F2B901C4F28A
:101E300002018842C0F0F080FFE742F62810C2F2AB
:101E40000000C06C006846F21001C4F20201884232
:101E500003D1FFE720202390D6E042F62810C2F2FB
:101E60000000C06C006846F21041C4F202018842D2
:101E700003D1FFE720202290C3E042F62810C2F2EF
:101E80000000C06C006846F27001C4F20201884292
:101E900003D1FFE720202190B0E042F62810C2F2E3
:101EA0000000C06C006846F27041C4F20201884232
:101EB00003D1FFE7202020909DE042F62810C2F2D7
:101EC0000000C06C006846F22801C4F2020188429A
:101ED00004D1FFE74FF400601F9089E042F628101C
:101EE000C2F20000C06C006846F22841C4F2020150
:101EF000884204D1FFE74FF400601E9075E042F67F
:101F00002810C2F20000C06C006846F28801C4F2DA
:101F10000201884204D1FFE74FF400601D9061E0A8
:101F200042F62810C2F20000C06C006846F28841F8
:101F3000C4F20201884204D1FFE74FF400601C9014
:101F40004DE042F62810C2F20000C06C006846F274
:101F50004001C4F20201884204D1FFE74FF40010AF
:101F60001B9039E042F62810C2F20000C06C0068F5
:101F700046F24041C4F20201884204D1FFE74FF427
:101F800000101A9025E042F62810C2F20000C06C42
:101F9000006846F2A001C4F20201884204D1FFE7C2
:101FA0004FF40010199011E042F62810C2F2000020
:101FB000C06C016846F2A042C4F202024FF0006019
:101FC000914208BF4FF400101990FFE719981A903A
:101FD000FFE71A981B90FFE71B981C90FFE71C98DF
:101FE0001D90FFE71D981E90FFE71E981F90FFE7CA
:101FF0001F982090FFE720982190FFE721982290DA
:10200000FFE722982390FFE7239846F20841C4F2A5
:10201000020108601890EEE142F62810C2F20000BA
:10202000C06C006846F25901C4F202018842C0F057
:10203000F080FFE742F62810C2F20000C06C006892
:1020400046F21001C4F20201884203D1FFE72020CA
:102050001790D6E042F62810C2F20000C06C00686B
:1020600046F21041C4F20201884203D1FFE720206A
:102070001690C3E042F62810C2F20000C06C00685F
:1020800046F27001C4F20201884203D1FFE720202A
:102090001590B0E042F62810C2F20000C06C006853
:1020A00046F27041C4F20201884203D1FFE72020CA
:1020B00014909DE042F62810C2F20000C06C006847
:1020C00046F22801C4F20201884204D1FFE74FF42E
:1020D0000060139089E042F62810C2F20000C06C44
:1020E000006846F22841C4F20201884204D1FFE7A9
:1020F0004FF40060129075E042F62810C2F2000022
:10210000C06C006846F28801C4F20201884204D122
:10211000FFE74FF40060119061E042F62810C2F230
:102120000000C06C006846F28841C4F20201884297
:1021300004D1FFE74FF4006010904DE042F6281004
:10214000C2F20000C06C006846F24001C4F2020115
:10215000884204D1FFE74FF400100F9039E042F6B7
:102160002810C2F20000C06C006846F24041C4F280
:102170000201884204D1FFE74FF400100E9025E0E1
:1021800042F62810C2F20000C06C006846F2A001BE
:10219000C4F20201884204D1FFE74FF400100D9011
:1021A00011E042F62810C2F20000C06C016846F24D
:1021B000A042C4F202024FF00060914208BF4FF407
:1021C00000100D90FFE70D980E90FFE70E980F900E
:1021D000FFE70F981090FFE710981190FFE7119814
:1021E0001290FFE712981390FFE713981490FFE7FF
:1021F00014981590FFE715981690FFE7169817901A
:10220000FFE7179846F20C01C4F2020108600C9037
:10221000EEE042F62810C2F20000C06C006846F200
:102220001001C4F20201884203D1FFE720200B9085
:10223000D6E042F62810C2F20000C06C006846F2F8
:102240001041C4F20201884203D1FFE720200A9026
:10225000C3E042F62810C2F20000C06C006846F2EB
:102260007001C4F20201884203D1FFE720200990E7
:10227000B0E042F62810C2F20000C06C006846F2DE
:102280007041C4F20201884203D1FFE72020089088
:102290009DE042F62810C2F20000C06C006846F2D1
:1022A0002801C4F20201884204D1FFE74FF4006024
:1022B000079089E042F62810C2F20000C06C006866
:1022C00046F22841C4F20201884204D1FFE74FF4EC
:1022D0000060069075E042F62810C2F20000C06C63
:1022E000006846F28801C4F20201884204D1FFE787
:1022F0004FF40060059061E042F62810C2F2000041
:10230000C06C006846F28841C4F20201884204D1E0
:10231000FFE74FF4006004904DE042F62810C2F24F
:102320000000C06C006846F24001C4F2020188421D
:1023300004D1FFE74FF40010039039E042F6281073
:10234000C2F20000C06C006846F24041C4F20201D3
:10235000884204D1FFE74FF40010029025E042F6D6
:102360002810C2F20000C06C006846F2A001C4F25E
:102370000201884204D1FFE74FF40010019011E000
:1023800042F62810C2F20000C06C016846F2A0427A
:10239000C4F202024FF00060914208BF4FF40010F7
:1023A0000190FFE701980290FFE702980390FFE792
:1023B00003980490FFE704980590FFE705980690BE
:1023C000FFE706980790FFE707980890FFE708984F
:1023D0000990FFE709980A90FFE70A980B90FFE73A
:1023E0000B9846F20801C4F2020108600C90FFE766
:1023F0000C981890FFE71898FFE741F62160C2F2A9
:10240000000000788007002815D5FFE741F621611C
:10241000C2F20001087800F0FD000870087840F072
:102420000400087040F20040C4F20200012211468C
:1024300002F0BEF8FFE741F68150C2F200000078DA
:102440008007002814D5FFE741F68151C2F2000150
:10245000087800F0FD000870087840F0040008706B
:102460000020C4F202001021012202F0A1F8FFE7CF
:1024700041F68050C2F2000000788007002814D591
:10248000FFE741F68051C2F20001087800F0FD003C
:102490000870087840F0040008700020C4F20200C0
:1024A0001021012202F084F8FFE714F091F941F6BF
:1024B0002160C2F2000000784007002809D5FFE73C
:1024C00043F61041C4F20101086840F001000860C1
:1024D000FFE7FFE762B080BD80B542F2B010C2F204
:1024E000000001F009FB80BD80B542F21020C2F26D
:1024F000000001F001FB80BD80B542F29030C2F2D5
:10250000000001F0F9FA80BD80B542F27020C2F2FD
:10251000000001F0F1FA80BD82B0019001980078CE
:1025200010384AF6AB21CAF6AA21A0FB0110000917
:10253000009000994AF69050C0F60100405C019965
:10254000C8650098042807D3FFE7019908680422AA
:1025500062F30900886506E00199086840F2FF32DD
:1025600090438865FFE70198806D02B070470000D6
:1025700086B0059000208DF813000598806A0390BE
:102580000598806910BBFFE70398029003281BD8C9
:102590000299DFE801F0020D0218059890F82F006B
:1025A000C00720B1FFE701208DF81300FFE70CE022
:1025B0000598C06AB0F1C07F04D1FFE701208DF813
:1025C0001300FFE701E000E0FFE745E005988069C0
:1025D000B0F5005F25D1FFE70398019003281ED8CE
:1025E0000199DFE801F00206021101208DF81300C5
:1025F00016E0059890F82F00C00720B1FFE70120F2
:102600008DF81300FFE70BE00598C06AB0F1C07FBA
:1026100004D1FFE701208DF81300FFE700E0FFE79A
:1026200019E003980090032804D3FFE700980328DB
:1026300004D00EE001208DF813000BE0059890F80F
:102640002F00C00720B1FFE701208DF81300FFE73E
:1026500000E0FFE7FFE7FFE79DF8130006B07047D3
:1026600084B0039002910192009303980168086876
:1026700020F4802008600098039909684860039856
:102680008068402809D1FFE70198039909688860AC
:10269000029803990968C86008E0029803990968DC
:1026A0008860019803990968C860FFE704B0704723
:1026B0007047000080B5012001F082FD80BD000060
:1026C00080B5022001F07CFD80BD000080B50820AF
:1026D00001F076FD80BD000080B5102001F070FD96
:1026E00080BD000080B5202001F06AFD80BD0000A3
:1026F00072B6FFE7FEE7000080B584B047F6102011
:10270000C1F6FF700068039047F61420C1F6FF7011
:102710000068029047F61820C1F6FF70006801902B
:102720000199039808440390039888B1FFE7039840
:1027300040F2E001C2F2000100910231082206F0ED
:10274000E3F8009902981231042206F0DDF8FFE761
:1027500004B080BD80B582B008F0A6FA42F6CC5134
:10276000C2F20001086040F22C10C2F20000FEF735
:102770007BFB41F6CC51C2F20001086040F24020E0
:10278000C2F2000007F094FA42F6D051C2F2000102
:102790000091086040F2B420C2F2000007F088FA0D
:1027A0000099486040F26010C2F2000007F02EF875
:1027B000014641F61460C2F2000001900160006819
:1027C000002107F015FB0198006807F03DFD02B0FD
:1027D00080BD00000000000080B58AB0FFF7BAFF9E
:1027E000FFE713F0D9FD41F6CC50C2F200000068BB
:1027F000FEF7DEFD42F6CC50C2F200000068D0F8D1
:102800000900C0F30130012840F08B80FFE742F659
:10281000CC50C2F200000068D0F8050040F38F10E1
:10282000401117F056FF41EC100B8DED040B42F6F2
:102830006040C2F200000990006818F0C5F99DEDF3
:10284000040B41EC110B8DED061B9FED591B53EC56
:10285000112B51EC100B17F0CBFF9DED060B41EC4B
:10286000110B51EC110B53EC102B17F0B7FC41EC92
:10287000100B51EC100B17F07FFC0146099801601A
:10288000006818F0A1F941EC100B9FED4B1B53ECC5
:10289000112B51EC100B18F0DEF950B9FFE742F69E
:1028A0006041C2F2000149F69A10C3F6197008603F
:1028B000FFE742F66040C2F20000006818F084F9B9
:1028C00041EC100B9FED3E1B53EC112B51EC100B08
:1028D00018F0BAF950B9FFE742F66041C2F20001C0
:1028E0004CF6CD40CBF64C600860FFE742F6D05086
:1028F000C2F20000039000689FED350A8DED020AD8
:1029000006F0DCFF0398006807F04AFA9DED020A22
:102910000398406806F0D2FF0398406807F040FA39
:1029200025E042F6CC50C2F200000068D0F8090061
:10293000C0F30130032819D1FFE742F6D050C2F2AC
:102940000000019000689FED200A06F0B7FF019893
:10295000006807F025FA019840689FED1C0A06F010
:10296000ADFF0198406807F01BFAFFE7FFE741F66B
:102970001460C2F200000090006842F66041C2F2AA
:10298000000191ED000A07F061FA0098006890EDEF
:102990001C1ADFED0F0AB0EE600A07F0ADFB0098DD
:1029A000006807F051FC012014F0E2F819E700BFBD
:1029B0008DEDB5A0F7C6B03E333333333333E33F49
:1029C0009A9999999999C9BF0000C8420000C8C254
:1029D0000000000084B002900191029890F820005D
:1029E0008DF803009DF80300012805D0FFE79DF84E
:1029F000030002280AD1FFE7019A0298016848699A
:102A00001043486100208DF80F0008E00299486AE1
:102A100040F48020486201208DF80F00FFE79DF808
:102A20000F0004B07047000088B006900591049232
:102A30000393069890F820008DF807000698006828
:102A4000806800900598806808B9FFE700E0FFE71C
:102A50009DF80700012806D0FFE79DF8070002282F
:102A600040F08080FFE79DF80300400700280CD469
:102A7000FFE79DF803000007002806D4FFE79DF854
:102A80000300C006002864D5FFE70098C0F301608A
:102A90000290029901208840039908600598806897
:102AA00068B9FFE705980168C06840EA4150069997
:102AB0000968029A01EB0211C1F880010EE0059944
:102AC0004A688868C96840EAC200084306990968EC
:102AD000029A01EB0211C1F88001FFE70598006935
:102AE00006990968029A01EB0211C1F88401059860
:102AF000007D01280CD1FFE706980068029900EBE1
:102B00000111D1F8840140F48070C1F88401FFE71D
:102B10000498406806990968029A01EB0211C1F80D
:102B20008C010498006806990968029A01EB021169
:102B3000C1F8880106980068029900EB0111D1F8EC
:102B4000800140F00100C1F8800100208DF81F00D5
:102B500011E00699486A40F40010486201208DF89F
:102B60001F0008E00699486A40F48020486201206E
:102B70008DF81F00FFE79DF81F0008B070470000A8
:102B800086B004900391049800680190049890F82E
:102B900020008DF803009DF80300012806D0FFE710
:102BA0009DF80300022840F0B080FFE746F20040A5
:102BB000C4F2000001900199D1F8000240F0010038
:102BC000C1F800020199D1F8000220F47C50C1F84C
:102BD00000020398426A0199D1F8000240EA0220FB
:102BE000C1F800020398406900F01F0101208840ED
:102BF0000290029A0199D1F81C029043C1F81C027C
:102C00000398C069F0B9FFE7029A0199D1F80C0264
:102C10009043C1F80C02039A9088D168526940EA47
:102C20000140019901EBC201C1F84002039A1088EA
:102C30009168526940EA0140019901EBC201C1F873
:102C40004402FFE70398C06901281ED1FFE7029AFA
:102C50000199D1F80C021043C1F80C02039A908834
:102C60001168526940EA0140019901EBC201C1F8C3
:102C70004002039A90899168526940EA01400199A3
:102C800001EBC201C1F84402FFE70398806940B933
:102C9000FFE7029A0199D1F804029043C1F80402B7
:102CA00007E0029A0199D1F804021043C1F8040226
:102CB000FFE70398006940B9FFE7029A0199D1F84C
:102CC00014029043C1F8140207E0029A0199D1F866
:102CD00014021043C1F81402FFE70398006A0128A8
:102CE00008D1FFE7029A0199D1F81C021043C1F8FC
:102CF0001C02FFE70199D1F8000220F00100C1F8A1
:102D0000000200208DF8170008E00499486A40F49A
:102D10008020486201208DF81700FFE79DF817001A
:102D200006B0704781B0009001B0704784B0039046
:102D3000029100200190039890F820008DF8030084
:102D40009DF80300012805D0FFE79DF80300022845
:102D500012D1FFE7029838B9FFE703980068C0680E
:102D600000F00300019006E003980068006900F09D
:102D700003000190FFE7FFE7019804B070470000EF
:102D800086B00490039102920193049890F8200079
:102D90008DF803009DF80300012806D0FFE79DF899
:102DA0000300022840F0E880FFE7039880B9FFE7BE
:102DB00004980068C068800748B9FFE70499486A2A
:102DC00040F40010486201208DF81700DDE00FE0AC
:102DD000049800680069800748B9FFE70499486AC9
:102DE00040F40010486201208DF81700CDE0FFE7A5
:102DF00004980068039900EB0110D0F8B00100F0CE
:102E00000400029988600298806858B9FFE7049826
:102E10000068039900EB0110D0F8B001400D029951
:102E200008600AE004980068039900EB0110D0F8EC
:102E3000B001C00802994860FFE704980068039950
:102E400000EB0110D0F8B00100F002000299C86058
:102E500004980068039900EB0110D0F8B40100F069
:102E60000F00082804D3FFE70299082008610BE04F
:102E700004980068039900EB0110D0F8B40100F049
:102E80000F0002990861FFE704980068039900EBBE
:102E90000110D0F8B40180B2000A02998861049848
:102EA0000068039900EB0110D0F8B401000C0299FE
:102EB000486104980068039900EB0110D0F8B8014C
:102EC0000199087004980068039900EB0110D0F88C
:102ED000B801000A0199487004980068039900EB52
:102EE0000110D0F8B801000C0199887004980068AE
:102EF000039900EB0110D0F8B801000E0199C870D9
:102F000004980068039900EB0110D0F8BC01019906
:102F1000087104980068039900EB0110D0F8BC0117
:102F2000000A0199487104980068039900EB0110A8
:102F3000D0F8BC01000C01998871049800680399CD
:102F400000EB0110D0F8BC01000E0199C871039884
:102F500038B9FFE704980168C86840F02000C860ED
:102F600006E004980168086940F020000861FFE766
:102F700000208DF8170008E00499486A40F480208A
:102F8000486201208DF81700FFE79DF8170006B092
:102F90007047000083B0029000200190029890F8E2
:102FA00020008DF803009DF80300012805D0FFE7FD
:102FB0009DF80300022822D1FFE70298006880688C
:102FC0004001002804D5FFE7019801300190FFE798
:102FD0000298006880680001002804D5FFE7019886
:102FE00001300190FFE7029800688068C000002867
:102FF00004D5FFE7019801300190FFE7FFE7019852
:1030000003B0704780B58AB00990002008900998F5
:103010000068406907900998006840680690099820
:1030200000688068059009980068C0680490099855
:1030300000680069039009980068806902909DF813
:103040001C00C007002800F09480FFE79DF81400E2
:10305000C00758B3FFE709980168012088609DF810
:1030600014008007002804D5FFE7099800F094FCBD
:103070001BE09DF814004007002805D5FFE70898DD
:1030800040F4006008900FE09DF81400000700284D
:1030900005D5FFE7089840F48050089003E00998B0
:1030A00000F076FCFFE7FFE7FFE7FFE79DF815007C
:1030B000C00760B3FFE7099801684FF4807088602B
:1030C0009DF815008007002804D5FFE7099800F057
:1030D0006BFC1BE09DF815004007002805D5FFE7B5
:1030E000089840F4005008900FE09DF81500000784
:1030F000002805D5FFE7089840F48040089003E0D9
:10310000099800F04DFCFFE7FFE7FFE7FFE79DF8B8
:103110001600C00760B3FFE7099801684FF48030DC
:1031200088609DF816008007002804D5FFE70998FD
:1031300000F042FC1BE09DF816004007002805D572
:10314000FFE7089840F4004008900FE09DF8160053
:103150000007002805D5FFE7089840F48030089064
:1031600003E0099800F024FCFFE7FFE7FFE7FFE733
:10317000FFE79DF81C000007002810D5FFE79DF829
:103180001000C006002809D5FFE7089840F4007039
:103190000890099801681020C860FFE7FFE79DF8D4
:1031A0001C00400700280FD5FFE79DF8100000071E
:1031B000002808D5FFE7099801680820C860099829
:1031C00000F0CCFAFFE7FFE79DF81C00800700281D
:1031D0000BD5FFE709980068C068800720B1FFE7BA
:1031E000099800F0BFFAFFE7FFE79DF81C004006D2
:1031F000002810D5FFE79DF80C00C006002809D56F
:10320000FFE7089840F48060089009980168102052
:103210000861FFE7FFE79DF81C00800600280FD536
:10322000FFE79DF80C000007002808D5FFE7099884
:10323000016808200861099800F0F8FAFFE7FFE745
:103240009DF81C00C00600280BD5FFE70998006810
:103250000069800720B1FFE7099800F0EBFAFFE76B
:10326000FFE79DF81E00800700280FD5FFE79DF8B7
:103270001800C006002808D5FFE70998016810204B
:103280004860099800F03AFBFFE7FFE79DF81E0051
:10329000C00778B1FFE79DF818000007002808D59F
:1032A000FFE70998016808204860099800F088FB4A
:1032B000FFE7FFE79DF81D000006002840F18D8024
:1032C000FFE79DF818004007002840F18180FFE7E4
:1032D0009DF81D00C00750B1FFE79DF80800C0072A
:1032E00028B1FFE7089840F001000890FFE79DF83B
:1032F0001D00800700280BD5FFE79DF80800800718
:10330000002805D5FFE7089840F002000890FFE785
:103310009DF81D00400700280BD5FFE79DF8080029
:103320004007002805D5FFE7089840F00400089002
:10333000FFE79DF81D000007002848D5FFE79DF82E
:10334000080010F0700F42D0FFE7029800F0700004
:1033500001460191102814D0FFE70198202815D0CC
:10336000FFE70198302816D0FFE70198402817D0D2
:10337000FFE70198502818D0FFE70198602819D07E
:103380001DE0089840F00800089019E0089840F007
:103390001000089014E0089840F0200008900FE01A
:1033A000089840F0400008900AE0089840F080003B
:1033B000089005E0089840F48070089000E0FFE76E
:1033C00009980168886920F070008861FFE7FFE7CD
:1033D0000998016804204860FFE7089848B1FFE7B2
:1033E000089A0999486A104348620998FFF79AFCBD
:1033F000FFE70AB080BD000080B584B0029002985B
:1034000020B9FFE701208DF80F00E0E0029890F866
:10341000200020B9FFE7029800F0DEF8FFE70298ED
:103420000168086840F00100086001F0D9F80190D7
:10343000FFE7029800684068C007A8B9FFE701F0FD
:10344000CFF80199401A0B280DD3FFE70299486A7B
:1034500040F4003048620299052081F820000120E4
:103460008DF80F00B3E0E4E702980168086820F0E7
:103470000200086001F0B4F80190FFE702980068CC
:1034800040688007002815D5FFE701F0A9F80199E9
:10349000401A0B280DD3FFE70299486A40F4003028
:1034A00048620299052081F8200001208DF80F0064
:1034B0008DE0E3E70298007E012807D1FFE702983C
:1034C0000168086840F08000086006E00298016822
:1034D000086820F080000860FFE70298407E01281D
:1034E00007D1FFE702980168086840F040000860D3
:1034F00006E002980168086820F040000860FFE7D5
:103500000298807E012807D1FFE7029801680868C9
:1035100040F02000086006E002980168086820F08A
:1035200020000860FFE70298C07E012807D1FFE76E
:1035300002980168086820F01000086006E0029810
:103540000168086840F010000860FFE70298007FFB
:10355000012807D1FFE702980168086840F00800D9
:10356000086006E002980168086820F0080008601A
:10357000FFE70298407F012807D1FFE70298016822
:10358000086840F00400086006E0029801680868D6
:1035900020F004000860FFE7029B19685A689868E9
:1035A000D3F80CC040EA0C00D3F810C040EA0C007D
:1035B0005B691843013A1043C861029900204862D0
:1035C000029A012182F820108DF80F00FFE79DF884
:1035D0000F0004B080BD000080B590B00F900020B7
:1035E0000E900D900C900B900A900F98006846F288
:1035F0000041C4F20001884249D1FFE740F20C408B
:10360000C2F200000168013101600068012812D196
:10361000FFE7FFE70020099043F64000C4F20200F4
:10362000016841F000710160006800F000700990CD
:103630000998FFE7FFE7FFE70020089043F6300016
:10364000C4F20200016841F008010160006800F066
:10365000080008900898FFE703200A9002210B91C8
:10366000002103910C910D9009200E9040F600402E
:10367000C4F202000AA900F0BFFD039A14200490CE
:10368000052101F051FA049801F044FA64E00F9822
:10369000006846F60001C4F2000188425BD1FFE7F2
:1036A000FFE70020079043F64000C4F202000168E3
:1036B00041F080610160006800F080600790079829
:1036C000FFE740F20C40C2F20000016801310160E6
:1036D0000068012812D1FFE7FFE70020069043F6BB
:1036E0004000C4F20200016841F00071016000680E
:1036F00000F0007006900698FFE7FFE7FFE7002064
:10370000059043F63000C4F20200016841F0020166
:103710000160006800F0020005900598FFE7602056
:103720000A9002200B90002001900C9003200D9035
:1037300009200E9040F20040C4F202000AA900F0F5
:103740005BFD019A41200290052101F0EDF90298FC
:1037500001F0E0F9FFE7FFE710B080BD81B0009015
:1037600001B0704780B584B0039003980021FFF743
:10377000DDFA8DF80B009DF80B00072819DBFFE739
:103780009DF80B004AF64262C0F6010269464A60A3
:1037900008604AF65671C0F601014AF65762C0F653
:1037A00001024AF63F63C0F60103002007F04CFB1C
:1037B000FFE7039840F2C032C2F2000202F11C039C
:1037C0000021FFF7DDFA039842F20011C2F2000176
:1037D000884210D1FFE741F61060C2F20000017884
:1037E00040F2C030C2F2000041F6D052C2F20002F4
:1037F00011F0B0FCFFE7039842F22811C2F2000179
:10380000884210D1FFE741F61160C2F20000017852
:1038100040F2C030C2F2000041F6F052C2F20002A3
:1038200011F098FCFFE704B080BD000081B000906B
:1038300001B0704780B584B0039003980121FFF771
:1038400075FA8DF80B009DF80B00072819DBFFE7D0
:103850009DF80B004AF64262C0F6010269464A60D2
:1038600008604AF67D71C0F601014AF65762C0F65B
:1038700001024AF63F63C0F60103002007F0E4FAB4
:10388000FFE7039840F2E432C2F2000202F11C03A7
:103890000121FFF775FA039842F20011C2F200010C
:1038A000884210D1FFE741F61060C2F200000178B3
:1038B00040F2E430C2F2000041F6D052C2F20002FF
:1038C00011F048FCFFE7039842F22811C2F2000110
:1038D000884210D1FFE741F61160C2F20000017882
:1038E00040F2E430C2F2000041F6F052C2F20002AF
:1038F00011F030FCFFE704B080BD000081B0009003
:1039000001B0704780B584B00290029890F8200012
:1039100001282FD1FFE70299022081F820000298A8
:103920000168086820F00100086000F059FE01906D
:10393000FFE7029800684068C007A8B1FFE700F001
:103940004FFE0199401A0B280DD3FFE70299486AF0
:1039500040F4003048620299052081F820000120DF
:103960008DF80F000FE0E4E70299002048628DF81F
:103970000F0008E00299486A40F4002048620120E4
:103980008DF80F00FFE79DF80F0004B080BD000028
:1039900081B0009001B0704781B0009001B07047D5
:1039A00081B0009001B0704781B0009001B07047C5
:1039B00081B0009001B0704781B0009001B07047B5
:1039C00081B0009001B0704780B584B00290029839
:1039D000806D019000F004FE0090029890F8350090
:1039E00002280DD0FFE7029980204865FFE7029981
:1039F000002081F83400FFE701208DF80F0055E02A
:103A000002980168086820F01600086002980168B2
:103A1000486920F0800048610298006C20B9FFE7F7
:103A20000298806C38B1FFE702980168086820F0BE
:103A300008000860FFE702980168086820F00100AC
:103A40000860FFE7029800680068C007C8B1FFE798
:103A500000F0C6FD0099401A062811D3FFE702992D
:103A6000202048650299032081F83500FFE702997C
:103A7000002081F83400FFE703208DF80F0015E0E7
:103A8000E0E70298C16D3F20884001998860029963
:103A9000012081F83500FFE70299002081F8340009
:103AA000FFE7FFE700208DF80F00FFE79DF80F000C
:103AB00004B080BD82B00090009890F835000228D4
:103AC00007D0FFE700998020486501208DF80700A6
:103AD0000EE00099052081F835000098016808681B
:103AE00020F001000860FFE700208DF80700FFE7E5
:103AF0009DF8070002B0704780B586B005900020A1
:103B0000039040F22800C2F20000006848F2B511AC
:103B1000C1F64E31A0FB0110800A02900598806D1D
:103B2000019001980068049004980599C96DC840F7
:103B3000000700281AD5FFE70598006800684007CD
:103B4000002812D5FFE705980168086820F00400F6
:103B500008600598C16D0820884001998860059922
:103B6000486D40F001004865FFE7FFE704980599BC
:103B7000C96DC840C007A0B1FFE70598006840695B
:103B8000000600280CD5FFE70598C16D012088408C
:103B9000019988600599486D40F002004865FFE78B
:103BA000FFE704980599C96DC8404007002814D55F
:103BB000FFE7059800680068800700280CD5FFE73C
:103BC0000598C16D04208840019988600599486D69
:103BD00040F004004865FFE7FFE704980599C96DC8
:103BE000C840C006002847D5FFE705980068006870
:103BF000000700283FD5FFE70598C16D10208840D9
:103C000001998860059800680068400300281AD56B
:103C1000FFE70598006800680003002809D4FFE763
:103C20000598006C20B1FFE70598016C8847FFE715
:103C300008E00598806C20B1FFE70598816C884703
:103C4000FFE7FFE716E0059800680068C005002858
:103C500007D4FFE705980168086820F008000860AD
:103C6000FFE70598006C20B1FFE70598016C8847D5
:103C7000FFE7FFE7FFE7FFE704980599C96DC84034
:103C80008006002840F18D80FFE7059800680068F5
:103C9000C006002840F18480FFE70598C16D202010
:103CA000884001998860059890F83500052834D13E
:103CB000FFE705980168086820F01600086005987D
:103CC0000168486920F0800048610598006C20B9BF
:103CD000FFE70598806C38B1FFE705980168086830
:103CE00020F008000860FFE70598C16D3F2088407C
:103CF000019988600599012081F83500FFE7059951
:103D0000002081F83400FFE70598006D20B1FFE73F
:103D10000598016D8847FFE77BE00598006800681B
:103D2000400300281AD5FFE70598006800680003E3
:103D3000002809D4FFE70598406C20B1FFE70598FB
:103D4000416C8847FFE708E00598C06B20B1FFE7AA
:103D50000598C16B8847FFE7FFE720E005980068FA
:103D60000068C005002811D4FFE7059801680868BD
:103D700020F0100008600599012081F83500FFE768
:103D80000599002081F83400FFE7FFE70598C06B34
:103D900020B1FFE70598C16B8847FFE7FFE7FFE722
:103DA000FFE70598406DA0B3FFE70598406DC00799
:103DB00030B3FFE70599052081F8350005980168C3
:103DC000086820F001000860FFE7039801300390C5
:103DD0000299884201D9FFE707E0FFE705980068EC
:103DE0000068C0070028F0D1FFE70599012081F89D
:103DF0003500FFE70599002081F83400FFE7FFE771
:103E00000598C06C20B1FFE70598C16C8847FFE7B3
:103E1000FFE706B080BD000080B586B004900020AA
:103E2000039000F0DDFB0290049820B9FFE7012029
:103E30008DF81700A3E00498406A08B1FFE7FFE798
:103E40000499022081F83500FFE70499002081F8E9
:103E50003400FFE704980168086820F0010008605A
:103E6000FFE7049800680068C00790B1FFE700F022
:103E7000B7FB0299401A06280AD3FFE704992020CD
:103E800048650499032081F835008DF8170076E025
:103E9000E7E70498006800680390039848F23F0140
:103EA000CFF2100108400390049900914868D1F8BE
:103EB00008C0CB680A6940EA0C00184310434A69FD
:103EC00010438A691043CA691043096A0143039881
:103ED000084303900498406A042808D1FFE7049936
:103EE000C86A096B0143039808430390FFE70398EE
:103EF0000499096808600498006840690390039871
:103F000020F0070003900498416A03980843039047
:103F10000498406A04281AD1FFE70498816A03983C
:103F2000084303900498C06A80B1FFE70498FEF745
:103F30001FFB50B1FFE70499402048650499012018
:103F400081F835008DF8170019E0FFE7FFE70398C7
:103F50000499096848610498FEF7DEFA0190049814
:103F6000C16D3F2088400199886004990020486510
:103F7000049A012182F835108DF81700FFE79DF8AB
:103F8000170006B080BD000080B588B0069005918E
:103F90000492039300208DF80B000698806D019029
:103FA000FFE7069890F83400012804D1FFE70220CB
:103FB0008DF81F0045E00699012081F83400FFE7E5
:103FC000FFE7069890F8350001282BD1FFE7069906
:103FD000022081F835000699002048650698059969
:103FE000049A039BFEF73CFB0698C16D3F20884076
:103FF0000199886006980168086840F0160008601A
:104000000698006C38B1FFE706980168086840F030
:1040100008000860FFE706980168086840F00100A2
:10402000086009E0FFE70699002081F83400FFE707
:1040300002208DF80B00FFE79DF80B008DF81F00A4
:10404000FFE79DF81F0008B080BD000080B584B078
:10405000039000F0C5FA0290039801900198013096
:1040600048B1FFE740F22C30C2F20000017801981D
:1040700008440190FFE7FFE700F0B2FA0299401A06
:104080000199884201D2FFE7F6E704B080BD000045
:1040900080B582B0ADF80600BDF8060010281BD12F
:1040A000FFE741F68151C2F20001087840F00100BB
:1040B000087041F68051C2F20001087840F001001A
:1040C000087042F6C330C2F20000007818B1FFE772
:1040D00012F07EFBFFE770E0BDF80600202813D148
:1040E000FFE741F62161C2F20001087840F00100CB
:1040F000087042F6C330C2F20000007818B1FFE742
:1041000012F066FBFFE757E0BDF8060008281CD157
:10411000FFE742F62841C2F20001087840F00100B2
:104120000870087800F00100087068B1FFE742F6F7
:104130002841C2F20001087800F0FE0008700878FB
:1041400040F002000870FFE735E0BDF806000128E6
:1041500023D1FFE715F08CFA01281DD0FFE740F2CC
:104160006040C2F20000006840F20841C2F2000163
:10417000009114F0E9FA0098006860B1FFE74EF68C
:104180000451CEF200014FF080500860BFF34F8F12
:10419000BFF36F8FFFE7FFE70CE0BDF806000228D2
:1041A00007D1FFE741F61861C2F200010120087053
:1041B000FFE7FFE7FFE7FFE7FFE702B080BD000092
:1041C00080B582B0ADF8060043F61440C4F2010099
:1041D0000068BDF8061008420CD0FFE7BDF80600E5
:1041E00043F61441C4F201010860BDF80600FFF770
:1041F0004FFFFFE702B080BD8EB00D900C91002004
:104200000A90099008900B90FFE70B980F2800F296
:10421000CC81FFE70B99012088400A900C98006838
:104220000A990840099009980A99884240F0B88193
:10423000FFE70C98406800F00300012807D0FFE773
:104240000C98406800F0030002282FD1FFE70D987A
:10425000806808900B984100032000FA01F108984B
:10426000884308900C98C0680B99490000FA01F146
:1042700008980843089008980D9988600D98406840
:1042800008900B99012000FA01F1089888430890E2
:104290000C984068C0F300100B9900FA01F10898DF
:1042A0000843089008980D994860FFE70C9840680B
:1042B00000F00300032818D0FFE70D98C0680890AD
:1042C0000B984100032000FA01F1089888430890F8
:1042D0000C9880680B99490000FA01F1089808438E
:1042E000089008980D99C860FFE70C98406800F0A6
:1042F0000300022826D1FFE70D980B996FF0030207
:1043000002EA51010844006A08900B9800F0070087
:1043100081000F2000FA01F10898884308900C985A
:1043200000690B9901F00701890000FA01F1089872
:104330000843089008980D990B9B02EA5302114418
:104340000862FFE70D98006808900B984100032071
:1043500000FA01F10898884308900C98406800F032
:1043600003000B99490000FA01F1089808430890EE
:1043700008980D9908600C9880798007002800F053
:104380000E81FFE7FFE70020079043F64400C4F2E8
:104390000200016841F480410160006800F480403F
:1043A00007900798FFE70B9820F0030043F60801F9
:1043B000C4F20101405808900B9800F003008100FE
:1043C0000F2000FA01F10898884308900D98002109
:1043D000C4F20201884203D1FFE7002006905EE0AC
:1043E0000D9840F20041C4F20201884203D1FFE778
:1043F0000120059050E00D9840F60001C4F2020142
:10440000884203D1FFE70220049042E00D9840F675
:104410000041C4F20201884203D1FFE70320039068
:1044200034E00D9841F20001C4F20201884203D148
:10443000FFE70420029026E00D9841F20041C4F20B
:104440000201884203D1FFE70520019018E00D9892
:1044500041F60001C4F20201884203D1FFE70620C1
:1044600000900AE00D9941F60042C4F202020820D1
:10447000914208BF07200090FFE700980190FFE7F6
:1044800001980290FFE702980390FFE703980490D9
:10449000FFE704980590FFE705980690FFE7069868
:1044A000C0B20B9901F00301890000FA01F10898EC
:1044B0000843089008980B9921F0030143F608027D
:1044C000C4F20102885043F60840C4F201000068BB
:1044D000089009990898884308900C988079C0063C
:1044E000002805D5FFE70999089808430890FFE7D9
:1044F000089843F60841C4F20101086043F60C40F5
:10450000C4F201000068089009990898884308904F
:104510000C9880798006002805D5FFE7099908984E
:1045200008430890FFE7089843F60C41C4F20101E4
:10453000086043F60440C4F201000068089009993D
:104540000898884308900C9880798007002805D542
:10455000FFE70999089808430890FFE7089843F691
:104560000441C4F20101086043F60040C4F20100B6
:104570000068089009990898884308900C988079F9
:10458000C00728B1FFE70999089808430890FFE79A
:10459000089843F60041C4F201010860FFE7FFE715
:1045A000FFE70B9801300B902FE60EB0704700002C
:1045B00082B00190ADF802108DF801209DF8010045
:1045C00028B1FFE7BDF802000199886105E0BDF858
:1045D0000200000401998861FFE702B07047000003
:1045E00046F6FC10C2F200000068704780B58EB03D
:1045F0000C900C9820B9FFE701208DF8370043E1BB
:104600000C9890F83D0040B9FFE70C99002081F824
:104610003C000C9800F03CF9FFE70C99242081F84D
:104620003D000C980168086820F0010008600C98B3
:104630000168086840F4004008600C980168086848
:1046400020F40040086001F065FD0A900C98406875
:1046500048F2A061C0F2010188420BD8FFE70A9935
:1046600048F28042C0F21E020020914238BF012071
:1046700009900AE00A9940F60012C0F23D020020BB
:10468000914238BF01200990FFE70998012804D121
:10469000FFE701208DF83700F6E00A984DF68361B8
:1046A000C4F21B31A0FB0110800C0B900C98006829
:1046B000406820F03F000B9908430C990968486056
:1046C0000C980068006A20F03F0008900C98406841
:1046D00048F2A061C0F20101884204D8FFE70B98BC
:1046E000013007900EE00B984FF49671484344F662
:1046F000D351C1F26201A0FB0101012000EB911036
:104700000790FFE70898079908430C990968086221
:104710000C980068C0694CF6FF71884306900C98AD
:10472000406848F2A061C0F2010188421FD8FFE74B
:104730000A9801380C9949684900B0FBF1F0013042
:104740006FF31F30032803D8FFE7042005900BE028
:104750000A9801380C9949684900B0FBF1F0013022
:104760006FF31F300590FFE7059804904CE00C981C
:10477000806868B9FFE70A9801380C99496801EB2D
:104780004101B0FBF1F001306FF31F3003900DE0F9
:104790000A9801380C99496819225143B0FBF1F08D
:1047A0000130042161F31F300390FFE703980005F7
:1047B00018B9FFE70120029023E00C98806868B9DF
:1047C000FFE70A9801380C99496801EB4101B0FBF9
:1047D000F1F001306FF31F3001900DE00A980138BD
:1047E0000C99496819225143B0FBF1F001300421C2
:1047F00061F31F300190FFE7019840F40040029000
:10480000FFE702980490FFE70698049908430C9983
:104810000968C8610C980068006820F0C0000C9B13
:104820001968DA691B6A1A43104308600C9800681B
:10483000806848F2FF3188430C9A1168D368126986
:104840001A43104388600C980068C06820F0FF008D
:104850000C9B19685A699B691A431043C8600C98ED
:104860000168086840F0010008600C9900200864A5
:104870000C9A202182F83D100C9908630C9981F85C
:104880003E008DF83700FFE79DF837000EB080BD81
:1048900080B58EB00D9000200C900B900A9009907E
:1048A00008900D98006845F60041C4F20001884266
:1048B0005FD1FFE7FFE70020079043F63000C4F226
:1048C0000200016841F004010160006800F004008A
:1048D00007900798FFE7FFE70020069043F63000B7
:1048E000C4F20200016841F001010160006800F0BB
:1048F000010006900698FFE74FF400700890122020
:1049000000900990002001900A90032002900B90E3
:10491000042003900C9040F60000C4F2020008A9A5
:104920000491FFF769FCDDF800C0019B029A03982F
:1049300004994FF4807ECDF820E0CDF824C00A938E
:104940000B920C900020C4F20200FFF755FCFFE729
:104950000020059043F64000C4F20200016841F4D3
:1049600000010160006800F4000005900598FFE771
:10497000FFE70EB080BD000040F22C30C2F2000014
:10498000027846F6FC11C2F2000108681044086083
:104990007047000080B543F60041C4F20201086888
:1049A00040F400700860086840F48060086008689F
:1049B00040F480700860032000F0D0F80F2000F071
:1049C00005F800F07BF8002080BD000080B58CB0B9
:1049D0000B90002004900390FFE70020009043F626
:1049E0004000C4F20200016841F04001016000682B
:1049F00000F0400000900098FFE706A802A901F02F
:104A000059FB09980490049820B9FFE701F082FB54
:104A1000059004E001F07EFB40000590FFE705985B
:104A20004DF68361C4F21B31A0FB01014FF0FF3052
:104A300000EB9140039042F61020C2F2000041F6D4
:104A40000001C4F20001016040F2E731C160039946
:104A50004160002101618160816102F061FB8DF89C
:104A600007009DF8070028BBFFE742F61020C2F2BE
:104A7000000002F01FFC8DF807009DF80700C0B988
:104A8000FFE72B2000F046F80B980F280CD8FFE723
:104A90000B992B20002200F047F80B9840F23031A0
:104AA000C2F20001086003E001208DF80700FFE773
:104AB000FFE7FFE79DF807000CB080BD80B582B02E
:104AC000FFE70020019043F64400C4F202000168B1
:104AD00041F480410160006800F480400190019839
:104AE000FFE7FFE70020009043F64000C4F2020019
:104AF000016841F080510160006800F08050009032
:104B00000098FFE76FF001000F21002200F00CF881
:104B100002B080BD80B582B08DF807009DF9070016
:104B200010F0F8FF02B080BD80B586B08DF8170098
:104B3000049103920020029011F004F802909DF974
:104B40001700019002980499039A05F099FB014619
:104B5000019810F0FFFF06B080BD000080B582B064
:104B60000190019811F018F802B080BD82B0019058
:104B70008DF8031002B0704782B00190ADF80210BA
:104B8000BDF80200019909684862002002B0704730
:104B900084B003908DF80B10ADF8082003980068DE
:104BA000406A00909DF80B0048B9FFE7BDF8081077
:104BB000009840EA014003990968886233E003984D
:104BC0000068816A009800EB1140009000208DF889
:104BD0000700FFE79DF807009DF80B100139884298
:104BE00013D2FFE7039800689DF8071000EB8100DF
:104BF000D0F80411009800EB11400090FFE79DF8F9
:104C0000070001308DF80700E4E7BDF808100098B0
:104C100040EA0140039909689DF80B2001EB8201ED
:104C2000C1F80001FFE7002004B0704780B582B0F2
:104C300001900198D0F8E0040EF042F902B080BD76
:104C400080B582B001908DF80310019AD2F8E0048B
:104C50009DF8031001EBC10302EB8302126A0DF011
:104C60008DFF02B080BD000080B582B001908DF84C
:104C70000310019AD2F8E0049DF8031001EBC10380
:104C800002EB8302D2F860220EF040F802B080BD41
:104C900080B582B001900198D0F8E0040EF016F9CA
:104CA00002B080BD80B584B003908DF80B109DF8E4
:104CB0000B00000600280CD5FFE703989DF80B10A9
:104CC00001F00F0101EBC10100EB810014300190F4
:104CD0000CE003989DF80B1001F00F0101EBC101EE
:104CE00000EB810000F515700190FFE70398006864
:104CF00001990FF067FE8DF80A009DF80A0004B0D4
:104D000080BD000080B584B002908DF807109DF83A
:104D10000700000600280FD5FFE702989DF807104E
:104D200001F00F0101EBC10100EB81001430009094
:104D30000099012048700FE002989DF8071001F0DB
:104D40000F0101EBC10100EB810000F5157000902F
:104D5000009900204870FFE79DF8070000F00F0061
:104D600000990870FFE7029890F89404012804D194
:104D7000FFE702208DF80F0014E00299012081F86E
:104D80009404FFE7FFE70298006800990FF00AF922
:104D9000FFE70299002081F89404FFE700208DF8D6
:104DA0000F00FFE79DF80F0004B080BD80B584B010
:104DB00002908DF807109DF8070000F00F0002998F
:104DC0000979884204D9FFE701208DF80F004DE0F2
:104DD0009DF80700000600280FD5FFE702989DF810
:104DE000071001F00F0101EBC10100EB810014304D
:104DF00000900099012048700FE002989DF807107C
:104E000001F00F0101EBC10100EB810000F515700D
:104E10000090009900204870FFE7009900208870FA
:104E20009DF8070000F00F0000990870FFE7029856
:104E300090F89404012804D1FFE702208DF80F00B8
:104E400014E00299012081F89404FFE7FFE702983B
:104E5000006800990FF016FBFFE70299002081F827
:104E60009404FFE700208DF80F00FFE79DF80F0086
:104E700004B080BD82B001908DF8031001989DF8B8
:104E8000031001F00F0101EBC10100EB8100D0F82C
:104E9000680202B07047000080B586B004908DF8BB
:104EA0000F10ADF80C208DF80B3000208DF80A00A3
:104EB0009DF80F00000600280FD5FFE704989DF825
:104EC0000F1001F00F0101EBC10100EB8100143064
:104ED00001900199012048700FE004989DF80F108F
:104EE00001F00F0101EBC10100EB810000F515702D
:104EF0000190019900204870FFE79DF80F0000F035
:104F00000F0001990870BDF80C006FF3DF200199C4
:104F100088609DF80B00019908710198407820B1D4
:104F2000FFE7019908784883FFE79DF80B00022806
:104F300004D1FFE7019900204871FFE7FFE70498DB
:104F400090F89404012804D1FFE702208DF817009F
:104F500015E00499012081F89404FFE7FFE7049825
:104F6000006801990EF0F0FEFFE70499002081F837
:104F70009404FFE79DF80A008DF81700FFE79DF8FD
:104F8000170006B080BD000080B586B005908DF892
:104F900013100392029305989DF8131001F00F016E
:104FA00001EBC10100EB810000F515700190039841
:104FB0000199C8600298019908610199002048612F
:104FC000019948709DF8130000F00F0001990870D6
:104FD00005988079012804D1FFE703980199C861F9
:104FE000FFE7059A1068019992790FF0EFFA002017
:104FF00006B080BD80B584B002908DF807109DF892
:10500000070000F00F0002990979884204D9FFE7F0
:1050100001208DF80F0058E09DF8070000060028D9
:105020000FD5FFE702989DF8071001F00F0101EB83
:10503000C10100EB810014300090009901204870FC
:105040000DE002989DF8071001EBC10100EB810013
:1050500000F515700090009900204870FFE7009956
:10506000012088709DF8070000F00F00009908707B
:10507000FFE7029890F89404012804D1FFE702208A
:105080008DF80F0021E00299012081F89404FFE7D8
:10509000FFE70298006800990FF044FA9DF80700B6
:1050A000000740B9FFE7029A1068917902F29C422A
:1050B0000FF098F9FFE7FFE70299002081F89404C8
:1050C000FFE700208DF80F00FFE79DF80F0004B008
:1050D00080BD000080B586B005908DF81310039256
:1050E000029305989DF8131001F00F0101EBC10127
:1050F00000EB81001430019003980199C860029878
:1051000001990861019900204861019901204870C6
:105110009DF8130000F00F00019908700598807940
:10512000012804D1FFE703980199C861FFE7059AB8
:105130001068019992790FF049FA002006B080BDFD
:1051400080B58CB00B900B9800680A900A98099073
:105150000B9800680FF06CFD002840F00B84FFE70F
:105160000B9800680FF0D0FD10B9FFE700F002BC0B
:105170000998D0F80808C0F30D200B99C1F8D404A1
:105180000B9800680FF0C0FD8007002807D5FFE7E7
:105190000B980168486900F002004861FFE70B982E
:1051A00000680FF0B1FDC006002862D5FFE70B983C
:1051B0000168886920F0100088610A98006A0290EE
:1051C0000B98029901F00F0101EBC10100EB810086
:1051D00000F515700890029800F4F0110220B0EB71
:1051E000514F23D1FFE7BDF8080047F6F0710842A0
:1051F0001BD0FFE70A980899C968029AC2F30A12FD
:105200000FF090FD029847F6F07100EA0103089A4A
:10521000D06800EB1310D060029800EA01020899F0
:10522000486900EB12104861FFE71BE0029800F4A8
:10523000F0110620B0EB514F12D1FFE70A980B99FD
:1052400001F29C4108220FF06DFD029847F6F071C3
:1052500000EA01020899486900EB1210486100E079
:10526000FFE7FFE70B980168886940F0100088614C
:10527000FFE70B9800680FF047FD0003002840F19E
:10528000A680FFE7002004900B9800680FF0EAFC6E
:105290000690FFE70698002800F09880FFE79DF849
:1052A0001800C007002800F08A80FFE70B9800680C
:1052B0009DF810100FF010FD05909DF81400C00728
:1052C00060B1FFE70998049900EB41110120C1F892
:1052D000080B0B98049905F057F8FFE79DF81400A8
:1052E000000700280CD5FFE70998049900EB41114D
:1052F0000820C1F8080B0B98049904F0FFFFFFE7A2
:105300009DF81400C006002808D5FFE70998049905
:1053100000EB41111020C1F8080BFFE79DF81400C5
:10532000800700282DD5FFE70A984069000600286D
:1053300008D5FFE70999D1F8040840F48060C1F866
:105340000408FFE70B98049901EBC10100EB810011
:1053500000F5157008900898C078012809D1FFE77A
:1053600008990020C8700B989DF8101000F012FBEF
:10537000FFE70998049900EB41110220C1F8080BDE
:10538000FFE79DF814008006002808D5FFE709987C
:10539000049900EB41112020C1F8080BFFE79DF8AC
:1053A00015008006002809D5FFE70998049900EB4D
:1053B00041114FF40050C1F8080BFFE7FFE70498D4
:1053C0000130049006984008069063E7FFE70B98C9
:1053D00000680FF099FC4003002840F1C680FFE709
:1053E0000B9800680FF02CFC069000200490FFE75B
:1053F0000698002800F0B880FFE79DF81800C00765
:10540000002800F0AA80FFE70B9800689DF81010B4
:105410000FF03AFC05909DF81400C00700283ED01C
:10542000FFE7049800F00F01012000FA01F1039159
:10543000039B099AD2F834189943C2F83418099991
:10544000049A01EB4211C1F808090B9880790128F0
:105450001FD1FFE70B98049901EBC10100EB81011B
:10546000CA69086A10440862049888B9FFE70B9873
:10547000049901EBC10100EB8100406A40B9FFE7EC
:105480000B99086801F29C4201210EF0ABFFFFE787
:10549000FFE70B989DF81010FFF7D2FBFFE79DF890
:1054A00014000007002808D5FFE70998049900EBCD
:1054B00041110820C1F80809FFE79DF81400C00653
:1054C000002808D5FFE70998049900EB4111102046
:1054D000C1F80809FFE79DF814004006002808D528
:1054E000FFE70998049900EB41114020C1F8080931
:1054F000FFE79DF814008007002822D5FFE70A98EF
:1055000004990FF031FB0B98049901EBC10100EBFA
:105510008100143008900898C078012809D1FFE76D
:1055200008990020C8700B989DF8101000F024FA1C
:10553000FFE70998049900EB41110220C1F808091E
:10554000FFE79DF814000006002805D5FFE70B983B
:10555000049904F0FDFFFFE7FFE704980130049091
:1055600006984008069043E7FFE70B9800680FF0A5
:10557000CBFBC00F00B3FFE70999D1F8040820F076
:105580000100C1F804080B9890F8CC04012808D158
:10559000FFE70B98002180F8CC140B98FFF7E6FA90
:1055A00003E00B9800F0A8FBFFE70B98016848693F
:1055B00000F000404861FFE70B9800680FF0A4FB83
:1055C0000005002811D5FFE70998D0F80808C007A2
:1055D00020B1FFE70B9800F01BFCFFE70B98016878
:1055E000486900F400604861FFE70B9800680FF01D
:1055F0008BFBC004002840F18680FFE70999D1F8B1
:10560000040820F00100C1F804080B98006810217C
:105610000FF0AAFA00200790FFE707980B99097985
:10562000884231D2FFE70998079900EB41114FF604
:105630007F30C1F808090999079A01EB4212D2F8A4
:10564000001921F40011C2F800190999079A01EB19
:105650004211C1F8080B0998079900EB4111D1F8E4
:10566000000B20F40010C1F8000B0998079900EB1B
:105670004111D1F8000B40F00060C1F8000BFFE7CA
:10568000079801300790C8E70999D1F81C0840F045
:105690000110C1F81C080B98C07B78B1FFE709998D
:1056A000D1F8840840F00B00C1F884080999D1F8BA
:1056B000440840F00B00C1F844080FE00999D1F804
:1056C000140842F22B021043C1F814080999D1F8CA
:1056D000100840F00B00C1F81008FFE70999D1F855
:1056E000000820F4FE60C1F800080B9A1068917958
:1056F00002F29C420EF076FE0B980168486900F4B5
:1057000080504861FFE70B9800680FF0FDFA8004B5
:1057100000281FD5FFE70B9800680EF085FB0B985B
:1057200000680FF05FFA0B99C8710B980068019040
:1057300000F0EAFC014601980B9AD2790FF0EAFBDF
:105740000B9800F0AFFA0B980168486900F400501C
:105750004861FFE70B9800680FF0D6FA00070028B1
:105760000AD5FFE70B9800F0D1FA0B980168486959
:1057700000F008004861FFE70B9800680FF0C4FADA
:105780000006002825D5FFE70A99886920F08000E7
:10579000886101200490FFE704980B9909798842F9
:1057A00016D2FFE70B98049901EBC10100EB8100D1
:1057B00090F85702012806D1FFE70B989DF81010CA
:1057C000FFF770FAFFE7FFE7049801300490E3E782
:1057D000FFE70B9800680FF097FAC00200283CD54D
:1057E000FFE701200490FFE704980B9909798842AC
:1057F0002CD2FFE70998049900EB4110D0F800097A
:1058000002900B98049901EBC10100EB8100007E2E
:10581000012816D1FFE79DF80B000006002810D5DF
:10582000FFE70B98049901EBC10100EB8101012016
:10583000C8750B989DF8101041F08001FFF732FAFF
:10584000FFE7FFE7049801300490CDE70B9801686B
:10585000486900F480104861FFE70B9800680FF07A
:1058600053FA8002002855D5FFE701200490FFE796
:1058700004980B990979884245D2FFE70998049961
:1058800000EB4110D0F8000B02900B98049901EB4B
:10589000C10100EB810090F8580201282ED1FFE7EA
:1058A0009DF80B000006002828D5FFE7029800F4B9
:1058B00080300B99D1F8D41401F0010188421DD138
:1058C000FFE70B98049901EBC10100EB8101012076
:1058D00081F857020A99886940F0800088610A9827
:1058E00040690006002808D4FFE70999D1F80408A8
:1058F00040F40070C1F8040805E0FFE7FFE70498F2
:1059000001300490B4E70B980168486900F4001076
:105910004861FFE70B9800680FF0F6F94000002897
:105920000AD5FFE70B98FFF781F90B9801684869E2
:1059300000F080404861FFE70B9800680FF0E4F941
:105940004007002815D5FFE70B98006840680290D3
:105950009DF808004007002804D5FFE70B98FFF7E3
:1059600097F9FFE7029A0B9801684868104348606E
:10597000FFE7FFE70CB080BD80B582B001908DF8E5
:1059800003100198D0F8E0049DF803100DF03AFBE5
:1059900002B080BD80B582B001908DF803100198EF
:1059A000D0F8E0049DF803100DF064FB02B080BD58
:1059B00080B58EB00C900C9820B9FFE701208DF8CF
:1059C000370012E10C9800680B900C9890F8950441
:1059D00040B9FFE70C99002081F894040C9800F07E
:1059E00009F9FFE70C99032081F895040B98B0F1B1
:1059F000A04F04D1FFE70C9900208871FFE70C98B5
:105A000000680EF0E5FC0C9B1868197C8DF82410DA
:105A100059689A68DB680893079206910699079A75
:105A2000089BDDF824C0EE46CEF800C00EF012FA56
:105A300040B1FFE70C99022081F8950401208DF810
:105A40003700D2E00C98006800210FF0C5F940B192
:105A5000FFE70C99022081F8950401208DF83700AA
:105A6000C3E000208DF82B00FFE79DF82B000C9978
:105A70000979884241DAFFE70C989DF82B1001EB79
:105A8000C10100EB8101012048759DF82B000C99A4
:105A900000EBC00201EB820108759DF82B000C9908
:105AA00000EBC00201EB8201C8850C989DF82B1019
:105AB00001EBC10100EB8101002008760C999DF8F3
:105AC0002B2002EBC20201EB8201C8610C999DF808
:105AD0002B2002EBC20201EB820108620C999DF8B7
